:100000000C94CB000C94F3000C94F3000C94F300CC
:100010000C94F3000C94F3000C94F3000C94F30094
:100020000C94F3000C94F3000C94F3000C940E2F3A
:100030000C94F3000C94F3000C94F3000C94F30074
:100040000C946C2E0C94F3000C94DC2E0C94B62EB5
:100050000C94F3000C94F3000C94F3000C94F30054
:100060000C94F3000C94F30000000000000205055E
:100070000502010301010102050102070601020157
:10008000060405070101070406010603040605022C
:10009000070102020202050205020205030106022F
:1000A0000507050506050605060304040403060501
:1000B00005050607040604070704060404030405EF
:1000C00005030505070505070202020701010105F1
:1000D00002050604060504040404070507070505D0
:1000E00005070707050205050502060506040402C3
:1000F00005050503060506050503040201060702BA
:1001000002020205050505020505050202050507AF
:10011000070505050205050505030106070102049B
:100120000701010F0F0900010E0A000000000F096E
:1001300000090F0E040000020C0400000000230060
:100140002600290000000000240027002A000000EB
:100150000000250028002B00040404040404040407
:100160000202020202020303030303030102040862
:100170001020408001020408102001020408102011
:100180000000000800020100000304070000000056
:1001900000000000883411241FBECFEFD8E0DEBF7E
:1001A000CDBF15E0A0E0B1E0ECE8F8E702C00590B3
:1001B0000D92AC3CB107D9F726E0ACECB5E001C03C
:1001C0001D92A33FB207E1F710E0CBECD0E004C0F2
:1001D0002197FE010E943538CA3CD107C9F70E9419
:1001E000AD300C94443C0C940000EBEDF6E0119221
:1001F00086E0EF3EF807D9F70895EBEDF6E080834F
:100200006483408791E09487908B818365834187E5
:100210009587918B8283668342879687928B8383AF
:10022000678343879787938B0895853061F01CF42B
:1002300083307CF40895873049F074F08830D1F72A
:1002400081E090E0089584E690E0089588EC90E0E5
:10025000089584EF91E0089582E390E0089582305C
:1002600059F01CF487FF0BC00895833059F0843097
:10027000D9F78AE090E008958EE190E0089584E156
:1002800090E0089585E090E00895833081F028F4AF
:10029000813099F08230A9F008958730A9F0883034
:1002A000C9F08430B1F4809180008F7D03C08091CB
:1002B00080008F7780938000089584B58F7784BD08
:1002C000089584B58F7DFBCF8091B0008F778093A8
:1002D000B00008958091B0008F7DF9CF1F93CF9328
:1002E000DF93282F30E0F901E058FE4F8491F901A7
:1002F000E459FE4FD491F901E85AFE4FC491CC2342
:10030000A9F0162F81110E944501EC2FF0E0EE0FAD
:10031000FF1FE25BFE4FA591B4918FB7F894EC916B
:10032000111108C0D095DE23DC938FBFDF91CF91F0
:100330001F910895DE2BF8CFCF93DF9390E0FC015F
:10034000E459FE4F2491885A9E4FFC0184918823E2
:10035000D1F090E0880F991FFC01EC5BFE4FA59156
:10036000B491FC01E25BFE4FC591D491623071F40F
:100370009FB7F8943C91822F809583238C93E881DA
:100380002E2B28839FBFDF91CF9108958FB7F894CC
:10039000EC912E2B2C938FBFF6CF3FB7F894809122
:1003A000310690913206A0913306B091340626B5FD
:1003B000A89B05C02F3F19F00196A11DB11D3FBF9D
:1003C000BA2FA92F982F8827BC01CD01620F711D6C
:1003D000811D911D42E0660F771F881F991F4A9566
:1003E000D1F708958F929F92AF92BF92CF92DF92F2
:1003F000EF92FF924B015C010E94CD016B017C01E9
:100400000E94CD016C197D098E099F09683E7340D9
:1004100081059105A8F321E0821A9108A108B1088D
:1004200088EEC80E83E0D81EE11CF11C81149104F3
:10043000A104B10429F7FF90EF90DF90CF90BF9017
:10044000AF909F908F9008952FB7F89460912D06EC
:1004500070912E0680912F06909130062FBF08953F
:10046000AF92BF92CF92DF92EF92FF920F931F93C2
:10047000CF93DF936C017B018B01040F151FEB0100
:100480005E01AE18BF08C017D10759F06991D601B7
:10049000ED91FC910190F081E02DC6010995892B29
:1004A00079F7C501DF91CF911F910F91FF90EF90E8
:1004B000DF90CF90BF90AF900895FC01538D448D95
:1004C000252F30E0842F90E0821B930B541710F0FF
:1004D000CF96089501970895FC01918D828D98170C
:1004E00061F0A28DAE0FBF2FB11D5D968C91928DE4
:1004F0009F5F9F73928F90E008958FEF9FEF089515
:10050000FC01918D828D981731F0828DE80FF11DDD
:10051000858D90E008958FEF9FEF0895FC01918DF8
:10052000228D892F90E0805C9F4F821B91098F73F1
:10053000992708958EE396E00E948E0221E0892B90
:1005400009F420E0822F089580E090E0892B29F0C3
:100550000E949A0281110C9400000895FC01A48D60
:10056000A80FB92FB11DA35ABF4F2C91848D90E0D5
:1005700001968F739927848FA689B7892C93A089B8
:10058000B1898C91837080648C93938D848D981342
:1005900006C00288F389E02D80818F7D80830895D5
:1005A000EF92FF920F931F93CF93DF93EC0181E0C3
:1005B000888F9B8D8C8D98131AC0E889F98980816A
:1005C00085FF15C09FB7F894EE89FF896083E8899D
:1005D000F98980818370806480839FBF81E090E08F
:1005E000DF91CF911F910F91FF90EF900895F62E1C
:1005F0000B8D10E00F5F1F4F0F731127E02E8C8DB6
:100600008E110CC00FB607FCFACFE889F9898081FA
:1006100085FFF5CFCE010E94AE02F1CFEB8DEC0F3E
:10062000FD2FF11DE35AFF4FF0829FB7F8940B8F17
:10063000EA89FB8980818062CFCFCF93DF93EC0181
:10064000888D8823B9F0AA89BB89E889F9898C91BA
:1006500085FD03C0808186FD0DC00FB607FCF7CF76
:100660008C9185FFF2CF808185FFEDCFCE010E9476
:10067000AE02E9CFDF91CF910895089508950895CE
:100680008430910578F46530710560F4403150F4A0
:10069000FB01EE0FFF1FEE0FFF1FE552F94FE80FB2
:1006A000F91F408308958F929F92AF92BF92CF928D
:1006B000DF92EF92FF920F931F93CF93DF938C0102
:1006C000EB018A5F91098731964208F0CFC077FD30
:1006D000CDC06F3F710511F00CF0CBC0209711F425
:1006E0000AE010E0809102019091030180179107C8
:1006F00009F495C04801012E000CAA08BB0860E06F
:1007000072E18AE790E0A50194010E94CB3569016E
:100710007A01DA01C9010197A109B1098F3F910559
:10072000A105B10509F008F476C060E472E48FE039
:1007300090E0A50194010E94CB3521503109410977
:10074000510982E02F3F31054105510509F008F4B8
:100750005AC060E970ED83E090E0A50194010E9429
:10076000CB35215031094109510983E02F3F310533
:100770004105510509F008F446C068E478EE81E0CF
:1007800090E0A50194010E94CB3521503109410927
:10079000510984E02F3F310541055105A1F198F140
:1007A00064E274EF80E090E0A50194010E94CB35F3
:1007B000215031094109510985E02F3F310541059B
:1007C000510509F100F162E17AE780E090E0A501CE
:1007D00094010E94CB35215031094109510986E02D
:1007E0002F3F31054105510571F068F0C701B60191
:1007F00020E034E040E050E00E94CB352150310948
:100800004109510987E09091B100987F892B80932D
:10081000B1002093B3001093030100930201809173
:100820000001909101018C179D0799F00FEF10E0E6
:100830000C1B1D0B61E085E00E949C010115110558
:10084000D9F460E085E00E946E01D0930101C0936D
:100850000001DF91CF911F910F91FF90EF90DF90FA
:10086000CF90BF90AF909F908F900895D0E0C0E060
:1008700037CFCFEFD0E036CF0F3F110511F461E055
:10088000E1CFE5E8F1E0E491E33019F140F4E13043
:10089000B1F0E230C9F0003811058CF7D2CFE73063
:1008A00011F1E83041F1E430B1F7809180008062CD
:1008B0008093800010938B0000938A00C6CF84B58C
:1008C000806884BD07BDC1CF84B5806284BD08BD8A
:1008D000BCCF809180008068809380001093890055
:1008E00000938800B2CF8091B00080688093B00000
:1008F0000093B300AACF8091B00080628093B000D3
:100900000093B400A2CF08950895DC011D96ED91E7
:10091000FC911E974E9F90014F9F300D5E9F300DB2
:100920001124620F731F9B0123703327220F331F83
:1009300076956795769567951B968D919C91680F36
:10094000791FFB01808190E043E050E0022E02C05D
:10095000440F551F0A94E2F78423952302C095950E
:1009600087952A95E2F70895FC01A585B6854A9FEB
:10097000F0014B9FF00D5A9FF00D11246E0F7F1F59
:10098000AB015695479556954795DC011B96ED9121
:10099000FC91E40FF51F63707727660F771F83E0E4
:1009A00090E0062E01C0880F0A94EAF780959081A6
:1009B000892301C0220F6A95EAF7822B808308956C
:1009C00021E00C94B404CF92DF92EF92FF921F9338
:1009D000CF93DF93C82FD0E0FE01E453FA4F10818C
:1009E0001123E1F0CC0FDD1FCC0FDD1FCD51DA4F0D
:1009F000C880D980EA80FB800E9424026C157D05A6
:100A00008E059F05A0F40E9424026C597F4F8F4FE2
:100A10009F4F688379838A839B8310E0812FDF91C6
:100A2000CF911F91FF90EF90DF90CF9008950E949B
:100A300024026C597F4F8F4F9F4F688379838A833D
:100A40009B83ECCFCF93C0E08C2F0E94E3048823DC
:100A500019F08C2FCF910895CF5FCC30A9F78FEF8D
:100A6000F9CFBF92CF92DF92EF92FF920F931F9335
:100A7000CF93DF93CCECD5E0D12C61E0D11001C055
:100A800060E089E00E946E0161E0D61201C060E082
:100A900088E00E946E0161E022E0D21201C060E0B5
:100AA00087E00E946E0106EC13E07E01F8012191BF
:100AB00031918F013327F901E058FE4F8491F901FC
:100AC000E459FE4FC490F901E85AFE4FB490BB20A0
:100AD00079F181110E944501EB2DF0E0EE0FFF1F2F
:100AE000E65CFE4FA591B491EC91CE2231E020E07E
:100AF00009F430E0832F922FF1E08F278170F70106
:100B00008083F3E0EF0EF11C23E00E3C120709F0A6
:100B1000CDCFD394219683E0D812AFCFDF91CF9180
:100B20001F910F91FF90EF90DF90CF90BF900895AD
:100B300090E080E0E1CF0895FC012AE030E03487C6
:100B400023871686158614A213A2878D90A164E1CF
:100B5000689FA001699F500D11248CE291E0841BD5
:100B6000950B8A309105B8F092A381A32BEF3FEF4C
:100B7000308B278785E090E0908F878B328B218B9D
:100B8000928F818F348B238B948F838F368B258B21
:100B9000968F858F089532A321A3E8CF0895FC0195
:100BA000E35AFF4F20812111ADC02FEFFC01E25A23
:100BB000FF4F30813111A8C03FEF230FFC01E15AF4
:100BC000FF4F30813111A2C03FEF230FFC01E05AEB
:100BD000FF4F308131119CC03FEF230FFC01EF59D3
:100BE000FF4F3081311196C03FEF230F322FFC01B0
:100BF000FF96608171816115710551F13A964081CE
:100C0000518134960190F081E02D4E0F5F1F440F0B
:100C1000551F440F551F6A5F7F4F669FF001679F06
:100C2000F00DF00D1124E417F50780F0FC01EE5BE8
:100C3000FF4F608170E06A5F7F4F669FF001679FA2
:100C4000F00DF00D1124E417F50710F43FEF320F0B
:100C5000FC01ED5BFF4F408151814115510599F039
:100C60004A5F5F4F389660817181660F771F660F0C
:100C7000771F449FF001459FF00DF00D1124E617FA
:100C8000F70708F43150FC01EB5BFF4F40815181C5
:100C90004115510599F04A5F5F4F3A966081718125
:100CA000660F771F660F771F449FF001459FF00D79
:100CB000F00D1124E617F70708F43150FC01E95B49
:100CC000FF4F4081518141155105A9F04A5F5F4FA7
:100CD0008F5A9F4FFC0180819181880F991F880F47
:100CE000991F449FB001459F700D700D1124681726
:100CF000790708F431503F3F7CF081E032306CF4EA
:100D000080E0089521E052CF31E057CF31E05DCF50
:100D100031E063CF31E069CF8FEF0895FC0184ADFE
:100D20008230F1F02CF4882349F0813081F008956D
:100D3000843041F1F4F0853071F1089542E061E0D2
:100D400080E00E94FD008FE08093E306089543E079
:100D500062E081E00E94FD008FE08093DF0608954D
:100D600043E063E083E00E94FD008FE08093DC06B7
:100D7000089543E062E081E00E94FD008FE08093EF
:100D8000E106089542E061E080E00E94FD0088E015
:100D90008093E606089540E060E080E00C94FD005A
:100DA000FC018785823069F48385948502970297D8
:100DB00040F4258536852151310981E02230310505
:100DC00008F080E00895FC018785823069F483850E
:100DD00094850497039740F4258536852F50310973
:100DE00081E02330310508F080E00895CF93DF9350
:100DF000FB012081318121153105E9F0EC01249FAF
:100E0000F001259FF00D349FF00D112488AD99ADB0
:100E1000AAADBBAD8E0F9F1FA11DB11D88AF99AFAD
:100E2000AAAFBBAFFB01118210820E9424026E8B1D
:100E30007F8B888F998FDF91CF91089581E00895FE
:100E4000BF92CF92DF92EF92FF920F931F93CF93B7
:100E5000DF938BEDC82E86E0D82ED0E0C0E0BC2E0C
:100E6000760110E000E0B0121EC04FE0BE01C801E4
:100E70000E9440030F5F1F4FFFEFEF1AFF0A04307D
:100E8000110589F7219684E0C80ED11CC530D10523
:100E900031F7DF91CF911F910F91FF90EF90DF908D
:100EA000CF90BF900895F7018081811182E0F70112
:100EB0008083E0CF8F929F92AF92BF92CF92DF92CA
:100EC000EF92FF920F93CF93DF934C01EB016B01F5
:100ED000C20ED31E5C01A40EB51ECC15DD057CF43C
:100EE0007401EA14FB044CF4402FBE01C7010E94B8
:100EF00040038FEFE81AF80AF4CF2196EECFDF9186
:100F0000CF910F91FF90EF90DF90CF90BF90AF9077
:100F10009F908F9008954F925F926F927F928F92E1
:100F20009F92AF92BF92CF92EF920F931F93CF9366
:100F3000DF935C01EB013A014901512C412C401631
:100F400051067CF44C2D40FC4E2DBE01C5010E9483
:100F50004003A60CB71CC80DD91D8FEF481A580ABC
:100F6000EECFDF91CF911F910F91EF90CF90BF9077
:100F7000AF909F908F907F906F905F904F9008956B
:100F8000CF92EF920F931F93CE2C0E948B071F914D
:100F90000F91EF90CF9008958F929F92AF92BF9252
:100FA000CF92DF92EF92FF920F931F93CF93DF9335
:100FB000EC016B014A015901E02E8A0130E020E08A
:100FC00041E050E00E94C007B6016A0D7B1D6150F0
:100FD000710930E020E041E050E0CE010E94C007FE
:100FE00082E0A81AB1088FEFC81AD80A850121E05B
:100FF00030E050E040E0B601CE010E94C007CE01D3
:10100000880D991D21E030E050E040E0B6010197E5
:101010000E94C007DF91CF911F910F91FF90EF9039
:10102000DF90CF90BF90AF909F908F9008958F9258
:101030009F92AF92BF92CF92DF92EF92FF920F9367
:101040001F93CF93DF937B019FE9980FCAEAC80FE4
:101050009A3108F0C0E09FEB980F9A3110F4CAEC77
:10106000C80F90ED980F9A3010F4C1EDC80F96ECB0
:10107000980F953010F4CBEEC80F85E0C89FE001C3
:10108000112410E000E0C859DF4F570181E0A81A91
:10109000B1088FE0C82EFE01E00FF11FD490470188
:1010A00083E0880E911C4D2D41704C9D402D1124E4
:1010B000B801C4010E944003D69481E0881A9108C7
:1010C000A814B90481F70F5F1F4F0530110519F7F8
:1010D000DF91CF911F910F91FF90EF90DF90CF9014
:1010E000BF90AF909F908F900895EF92FF920F93D3
:1010F0001F93CF93DF938C01CB017B0177FF03C05C
:1011000023E0E20EF11CF594E794F594E79464E093
:1011100070E00E942138C3E0D0E0C81BD90B411118
:1011200006C0C6EFDFEF039711F0C3E0D0E00E94E6
:10113000F500BE01635071090E0D1F1DF80180817D
:101140000E941708BE016F5F7F4FF8018181DF9118
:10115000CF911F910F91FF90EF900C941708EBED3A
:10116000F6E0AC014C5E5F4FDC012D91CD012031EA
:1011700008F42083319684179507B1F70895EBEDB5
:10118000F6E0A3E1B6E081918D9386E0EF3EF807AB
:10119000D1F708950895089580E00895FC01019025
:1011A0000020E9F73197AF01481B590BBC018EE3D2
:1011B00096E00C9430028F929F92AF92BF920F9361
:1011C0001F93CF93DF93CDB7DEB7A1970FB6F894F7
:1011D000DEBF0FBECDBF19A2423008F44AE08E0137
:1011E0000F5D1F4F842E912CB12CA12CA5019401D1
:1011F0000E94FD35E62FB901CA01EA30F4F4E05D42
:10120000D801EE938D01232B242B252B79F790E029
:1012100080E0109719F0CD010E94CE08A1960FB67C
:10122000F894DEBF0FBECDBFDF91CF911F910F911C
:10123000BF90AF909F908F900895E95CE1CFCF92DF
:10124000DF92EF92FF92CF93DF936B017C016DE20F
:101250008EE396E00E94D002EC0166277727CB014F
:101260006C197D098E099F094AE00E94DB088C0FEA
:101270009D1FDF91CF91FF90EF90DF90CF90089569
:10128000CF93DF930E94CE08EC0180EF94E00E94A0
:10129000CE088C0F9D1FDF91CF9108950C94CE083E
:1012A000CF93DF93682F8EE396E00E94D002EC018B
:1012B00080EF94E00E94CE088C0F9D1FDF91CF91AC
:1012C0000895CF93DF93C82FD62F0E945D3524E970
:1012D00031E140E050E00E94CB35672B682B692B51
:1012E00011F0DD2341F0C23009F44CC03CF4CC23B2
:1012F000C9F0C13061F1DF91CF910895C43009F494
:1013000071C00CF454C0C830B1F784EF91E09093F1
:101310003D0680933C0690933B0680933A0680ED11
:1013200097E03EC084EF91E090933D0680933C06A9
:101330008FEF90E090933B0680933A068AE090E02E
:1013400090933906809338068EEF9FEF44C088E86B
:1013500093E190933D0680933C068FEF90E090934D
:101360003B0680933A068CEE9FEF9093390680936C
:1013700038068EEF9FEF9093370680933606C09322
:101380003506B9CF8CE291E090933D0680933C0600
:1013900084EF91E090933B0680933A0683E090E0DF
:1013A00090933906809338068FEF9FEF14C084EF37
:1013B00091E090933D0680933C068FEF90E09093F0
:1013C0003B0680933A068EE190E090933906809335
:1013D000380686EF9FEF909337068093360610927B
:1013E000350689CF84EF91E090933D0680933C06CB
:1013F00088EE93E090933B0680933A068CE291E06E
:101400009FCFCF93DF93EC0181E08C871B860E94F6
:101410005D3525E030E040E050E00E94CB35615082
:101420006E871C8A1B8A8F85988948E2489F9001A5
:10143000499F300D112480E991E0821B930B8A3083
:10144000910528F09A8B898BDF91CF9108958AE0DE
:1014500090E0F8CF8F929F92AF92BF92CF92DF929F
:10146000EF92FF920F931F93CF93DF93EC010E94B3
:1014700024020B851C852D853E85601B710B820B1C
:10148000930B603571058105910508F05AC00E94E3
:10149000F5000BED16E06FEEE62E66E0F62E74E03A
:1014A000872E912CA12CB12C0E945D35A5019401B1
:1014B0000E94CB356C5F7E4FFB018081F8018193E8
:1014C0008F01EE16FF0681F70E94BF0880EE9EE2B4
:1014D00090933D0680933C068AEA90E090933B0609
:1014E00080933A06109239061092380686EF9FEFE5
:1014F000909337068093360681E0809335060E94EC
:101500002205182F87FD10C08F85811769F00E9472
:1015100024026B877C878D879E871F87198A188A8C
:101520008FEF9FEF9B8B8A8BDF91CF911F910F9154
:10153000FF90EF90DF90CF90BF90AF909F908F90F3
:1015400008950E9424020B851C852D853E85601B15
:10155000710B820B930B605571098109910924E687
:1015600030E040E050E00E94FD35398B288B8A89BD
:101570009B898217930719F23B8B2A8B8F858130C9
:1015800009F4A2C054F4EBEDF6E02FEE36E0882328
:1015900009F46BC00E94BF08B2CF823009F4BEC00C
:1015A0008330C1F70E94F5008E01F12CE12C9AE006
:1015B000892E912CA12CB12CF801848D42E0B70129
:1015C000082E000C990B0E9440030E945D35A50176
:1015D00094010E94CB35611571058105910509F4CF
:1015E00057C1613071058105910509F459C1FFEFBB
:1015F000EF1AFF0A0F5F1F4F85E0E816F104E1F6CE
:1016000088899989B7010E940D38892B79F4898DD1
:10161000888F8A8D898F8B8D8A8F0E945D3529E016
:1016200030E040E050E00E94CB356B8F5E01E8E196
:10163000AE0EB11CD12CC12CF50161915F01062EBB
:10164000000C770B87E0E82E05E010E021E030E0A9
:1016500050E040E0C6010E94C007FFEFCF1ADF0A4A
:1016600084E0C816D10441F795CF8191DF0111972D
:1016700090E0959587958C932E173F07B1F70E94C0
:101680005D3544E1C42ED12CE12CF12CA70196014B
:101690000E94CB356552794F1FE0FB0110830E94F9
:1016A0005D35A70196010E94CB356552794FFB014C
:1016B00010830E945D35A70196010E94CB356552CB
:1016C000794FFB01108366CF0E94F500E889F98904
:1016D000E370FF27E552F94F8FE08083E889F989AD
:1016E000E370FF27E552F94F808BE889F98931963D
:1016F000E370FF27E552F94F8483E889F989319631
:10170000E370FF27E552F94F8487E889F98932961B
:10171000E370FF27E552F94F80873CCF0E945D358B
:101720002AE030E040E050E00E94CB35683071059F
:101730008105910590F4FB01E056F44F0C94353887
:10174000A80B1B0C220C280C2E0C350C3C0C420C4C
:101750008C89181614F481508C8B0E94F5006D89C9
:10176000062E000C770B8C894FE0082E000C990B8D
:101770000E9440036F89062E000C770B8E8943E090
:10178000082E000C990B0E9440039C898E899813A7
:1017900001CF9D898F899813FDCE8EE293E09093BF
:1017A000E0058093DF0582E890E09093DA0580936E
:1017B000D90510920A011092090188E592E09093F0
:1017C000DC058093DB058CEF9FEF9093DE05809323
:1017D000DD0585E08093D80510920B0168EE73E07B
:1017E00080E090E00E94F2010E945D3524E0822EAC
:1017F000912CA12CB12CA50194010E94CB356C8BAE
:101800000E945D3535E0C32ED12CE12CF12CA701CF
:1018100096010E94CB356D8B0E945D35A501940128
:101820000E94CB356E8B0E945D35A70196010E9408
:10183000CB356F8BAFCE8D8918160CF08ECF8150C3
:101840008D8B8BCF8C8983300CF087CF8F5F84CFCB
:101850008D8984300CF081CF8F5FF2CF8E8918167E
:101860000CF07BCF81508E8B78CF8F8918160CF0BF
:1018700074CF81508F8B71CF8E8983300CF06DCFF8
:101880008F5FF1CF8F8984300CF067CF8F5FF2CFFD
:10189000F801848D8F3F0CF4AACE8150848FA7CE9F
:1018A000F801848D85300CF0A2CE8F5FF7CF8F9238
:1018B0009F92AF92BF92EF92FF920F931F93CF939D
:1018C000DF937C0181E0F701858717861686D0E0DB
:1018D000C0E086E0882E912CA12CB12C0E945D35B1
:1018E000F701038514850C0F1D1FA50194010E94AB
:1018F000CB35F80160832196CC33D10579F7DF91A0
:10190000CF911F910F91FF90EF90BF90AF909F905C
:101910008F900895CF92DF92EF92FF920F931F93D3
:10192000CF93DF93FC0124A135A1232B09F422C11D
:10193000EC0110E000E088EBC82E8BE0D82EE12C03
:10194000F12C8AA59BA50817190708F013C10E945E
:101950005D35A70196010E94CB3561307105810587
:10196000910509F442C0BCF4672B682B692B61F127
:10197000E8A5F9A5E00FF11F8081823009F4B8C015
:101980000CF04BC0882309F46FC0813009F48FC07C
:101990000F5F1F4FD6CF623071058105910589F128
:1019A000633071058105910519F7EEA1FFA1E00FE4
:1019B000F11F8081482F082E000C550B2AA93BA946
:1019C00024173507ACF61BC0ECA1FDA1E00FF11FF9
:1019D0008081482F082E000C550B2CA53DA5815069
:1019E000241735072CF68083C3CF8EA59FA5892B9E
:1019F00009F4BECFECA1FDA1E00FF11F80818F5F44
:101A0000F2CFEEA1FFA1E00FF11F8081482F082E39
:101A1000000C550B28A939A9E2CF833009F489C0FD
:101A2000843009F0B5CFEEA1FFA1E00FF11F608176
:101A3000062E000C770B8D859E85681B790B6E5FDB
:101A40007F4FECA1FDA1E00FF11F8081082E000C5B
:101A5000990B2B853C85821B930B42E002960E94DA
:101A6000400360E084E020C0EEA1FFA1E00FF11F81
:101A70006081062E000C770B8D859E85681B790B87
:101A80006E5F7F4FECA1FDA1E00FF11F8081082E5A
:101A9000000C990B2B853C85821B930B4CE0029626
:101AA0000E94400360E080E00E94610971CFEEA1D6
:101AB000FFA1E00FF11F6081062E000C770B8D85D2
:101AC0009E85681B790B6E5F7F4FECA1FDA1E00F37
:101AD000F11F8081082E000C990B2B853C85821B01
:101AE000930B42E002960E94400360E081E0DCCF6D
:101AF000EEA1FFA1E00FF11F6081062E000C770B15
:101B00008D859E85681B790B6E5F7F4FECA1FDA1D3
:101B1000E00FF11F8081082E000C990B2B853C856E
:101B2000821B930B4CE002960E94400360E082E02F
:101B3000BBCFEEA1FFA1E00FF11F6081062E000CCC
:101B4000770B8D859E85681B790B6E5F7F4FECA1AF
:101B5000FDA1E00FF11F8081082E000C990B2B8551
:101B60003C85821B930B42E002960E94400360E09A
:101B700083E09ACFDF91CF911F910F91FF90EF906B
:101B8000DF90CF9008952F923F924F925F926F9285
:101B90007F928F929F92AF92BF92CF92DF92EF92FD
:101BA000FF920F931F93CF93DF9300D000D000D00C
:101BB0001F92CDB7DEB7DC019496ED91FC91EF2B2F
:101BC00009F486C03601FC82EB82180129014D839D
:101BD0007A8369839F838E8310E000E06701FF0CA6
:101BE000EE08FF084301072C000CAA08BB08EE8191
:101BF000FF8162A573A589819A818017910709F4F5
:101C000041C080A591A5800F911F860F971FED8180
:101C1000DC01EC936C2DC114D104E104F10431F02A
:101C20000E945D35A70196010E94CB35AE81BF8130
:101C300094968D919C9195979A962D913C91820FB7
:101C4000931FFC01E00FF11F640D6083682D811468
:101C50009104A104B10431F00E945D35A501940105
:101C60000E94CB35EE81FF8186A197A122A533A5E5
:101C7000820F931FFC01E00FF11F620D60830F5F65
:101C80001F4FB5CF89819A81680F791FAE81BF81BF
:101C90009B967C936E939A979D965C924E929C979E
:101CA000EB81FC814E0E5F1EF1E04F1A51089F96AA
:101CB0005C924E929E97D1963C922E92D097260C93
:101CC000371C21E0221A3108D3963C922E92D297EB
:101CD00027960FB6F894DEBF0FBECDBFDF91CF9130
:101CE0001F910F91FF90EF90DF90CF90BF90AF903A
:101CF0009F908F907F906F905F904F903F902F902C
:101D00000895CF92DF92EF92FF920F931F93CF939C
:101D1000DF93EC0162968C010A5E1F4F84E0C82EAF
:101D2000D12CE12CF12C0E945D35A70196010E9477
:101D3000CB356B5F7E4FFB0180818993C017D10744
:101D400091F7DF91CF911F910F91FF90EF90DF906E
:101D5000CF900895CF93DF93EC01FC0176968696A1
:101D60002FEF2193E817F907E1F7CE010E94810ECA
:101D70001EA21FA218A619A6DF91CF9108950C9458
:101D8000E3380C94E3380C94E3380C94E3380C9467
:101D9000E3380C94E3382F923F924F925F926F9208
:101DA0007F928F929F92AF92BF92CF92DF92EF92EB
:101DB000FF920F931F93CF93DF9300D000D000D0FA
:101DC000CDB7DEB79E838D838B017A0160FD02C0A3
:101DD0000F5F1F4FE0FC03C08FEFE81AF80AED8198
:101DE000FE8116870587F08AE786838594850097AC
:101DF00011F00E94E3380E9DC0010F9D900D1E9DB5
:101E0000900D112497FD0396959587959595879547
:101E100001960E944738ED81FE8194878387892B44
:101E200021F483EF94E00E944009D12CC12CCE1400
:101E3000DF04A4F4B12CA12CA016B1065CF420E0C0
:101E4000A601B5018D819E810E94B404FFEFAF1AF7
:101E5000BF0AF2CF8FEFC81AD80AE9CF92E0C92E95
:101E6000D12C470191E0891A9108F8013197FC8340
:101E7000EB8324E0422E512C612C712CC814D90420
:101E80000CF04BC082E0A82EB12CC60101969A83BB
:101E90008983160191E0291A3108EB81FC81AE1685
:101EA000BF06BCF5A601B5018D819E810E94E004AC
:101EB0000E945D35A30192010E94CB35613071050E
:101EC00081059105C9F04CF4A101672B682B692BA2
:101ED000A9F0F2E0AF0EB11CE0CF623071058105D0
:101EE000910591F0633071058105910591F7A60187
:101EF000B5016F5F7F4F03C049815A81B5018D8164
:101F00009E810E94E004E5CFA601B50161507109F0
:101F1000F6CF82E0C80ED11CB1CFB12CA12C680144
:101F200091E0C91AD108AE14BF048CF4A50170E089
:101F300060E08D819E810E94E004A501B6018D8143
:101F40009E810E94E004EFEFAE1ABE0AECCFF12CA6
:101F5000E12CE016F1068CF450E040E0B7018D81F1
:101F60009E810E94E004A401B7018D819E810E94A0
:101F7000E004FFEFEF1AFF0AECCF20E050E040E072
:101F800061E070E08D819E810E94B40402501109CD
:101F900020E0A401B8018D819E810E94B404ED81EE
:101FA000FE81128B018B948A838A26960FB6F89451
:101FB000DEBF0FBECDBFDF91CF911F910F91FF907C
:101FC000EF90DF90CF90BF90AF909F908F907F90D9
:101FD0006F905F904F903F902F9008950C94E3384E
:101FE0000C94E338CF93DF93EC010E94F5000E943C
:101FF0002205E82F87FD41C08B85082E000C990B28
:10200000019664E170E00E9421388B87EC3008F083
:1020100034C00E2E000CFF0BE05FFF4E0C943538E1
:102020001C10491065107A109510AA10C610DF1008
:10203000EE10FB100A111D1187E393E09093E00569
:102040008093DF0582E890E09093DA058093D905CC
:1020500010920A011092090188E592E09093DC0544
:102060008093DB058CEF9FEF9093DE058093DD0579
:1020700085E08093D80510920B01EB850E2E000CA5
:10208000FF0BE552F94F8FE08083DF91CF910C94E5
:10209000BF0883E393E09093E0058093DF0584EF2E
:1020A00091E09093DA058093D90510920A0110927D
:1020B00009019093DC058093DB058EEF9FEF9093F1
:1020C000DE058093DD0584E0D4CF84EF91E090932A
:1020D0003D0680933C068FEF90E090933B06809303
:1020E0003A068AE090E090933906809338068EEFA6
:1020F0009FEF14C084EF91E090933D0680933C06DF
:102100008FEF90E090933B0680933A068EE190E04B
:10211000909339068093380686EF9FEF90933706A9
:102120008093360610923506A8CF84EC99E0909300
:102130003D0680933C068FEF90E090933B068093A2
:102140003A0688EF9FEF90933906809338068FEF19
:102150009FEFE4CF88E893E190933D0680933C069F
:102160008FEF90E090933B0680933A068CEE9FEFC2
:1021700090933906809338068EEF9FEF9093370641
:102180008093360681E08093350677CF0E94013533
:1021900064EA76E00E94213888539F4F90933D0671
:1021A00080933C068AEA90E090933B0680933A063F
:1021B00010923906109238068CEF9FEFDFCF8CE239
:1021C00091E090933D0680933C0684EF91E09093DC
:1021D0003B0680933A0683E090E0B5CF84EF91E030
:1021E00090933D0680933C0690933B0680933A067D
:1021F00080ED97E0A8CF84EF91E090933D06809327
:102200003C0688EE93E090933B0680933A068CE27E
:1022100091E069CF84EA98E390933D0680933C0671
:1022200088E592E090933B0680933A068EE190E039
:102230009093390680933806BFCF88EC90E0909356
:102240003D0680933C068EE591E090933B0680939B
:102250003A068EE190E090933906809338068FEF2E
:102260009FEF8CCFCF93DF93EC016B857C85072E9E
:10227000000C880B990B97FF16C00E941F0982E083
:1022800095E00E944E096D857E85072E000C880B17
:10229000990B97FF0CC00E941F0980EF94E0DF911B
:1022A000CF910C94CE084AE00E94DB08E8CF4AE0C8
:1022B0000E94DB08F2CF0F931F93CF93DF93EC01C3
:1022C000688B4F873C872B871E870D87623039F1DB
:1022D000CCF4662309F18DE095E06130D1F0EF8513
:1022E000E93050F50E2E000CFF0BE758FE4E0C9413
:1022F00035389811A311A611A911AC11AF11B21163
:10230000B511B811643089F06CF084E295E0653065
:1023100031F70E944E09E3CF84E095E0FACF83E1E4
:1023200095E0F7CF87E295E0F4CF8BE195E0F1CF30
:102330008FE295E00E944E09CE01DF91CF911F916F
:102340000F910C94321185E395E0F4CF8EE395E084
:10235000F1CF85E495E0EECF8CE495E0EBCF82E51C
:1023600095E0E8CF88E595E0E5CF81E695E0E2CF1E
:102370008BE695E0DFCFBF92CF92DF92EF92FF9294
:102380000F931F93CF93DF93EC01B62E411123C01F
:1023900082E3689F700111248E01085C1F4F680161
:1023A000E2E3CE0ED11CE01AF10AC701800F911FA3
:1023B0000E94B535F80181938F01EC15FD05A9F751
:1023C000BBA2DF91CF911F910F91FF90EF90DF9013
:1023D000CF90BF90089518AE19AE1AAE1BAE1CAECA
:1023E00081E090E09EAF8DAFFE01FF9691838083E8
:1023F0003296108231961082319611821082329676
:1024000011821082329611821082329691838083DB
:102410003296118210823296118210823296118287
:10242000108232961182108282E090E0329691837F
:1024300080833296118210823296118210823296F7
:102440001182108232961182108232961082319659
:102450001082319610823196108231961082319618
:10246000118210823296118210823296118210826D
:10247000329611821082A4CFBF92CF92DF92EF9258
:10248000FF920F931F93CF93DF93FC01E3A0F2E33E
:10249000EF9E70011124EC01E89610E000E0B99085
:1024A0006701C00ED11EC6010E94B535B81621F0D5
:1024B0006B2DC6010E94BD350F5F1F4F0233110502
:1024C00071F7DF91CF911F910F91FF90EF90DF9007
:1024D000CF90BF9008954F925F926F927F929F929C
:1024E000AF92BF92CF92DF92EF92FF920F931F9322
:1024F000CF93DF93EC015B01942E752E122F0E9477
:1025000024026B017C0122967F929F9282E795E0E4
:102510009F938F93DF93CF930E946C390F900F900E
:102520000F900F900F900F9088EC482E512C612C3B
:10253000712C912E091578F0892D0E94E3048111E8
:102540002BC09394F7CFC5010E94AF080E94BF082B
:102550000E943105EECF0E9424026C197D098E097C
:102560009F09683E73408105910568F30E9424022B
:102570006C197D098E099F09A30192010E94FD3506
:102580002D5E3F4F2F713327B9016450710941E02F
:10259000CE010E947508DACFDF91CF911F910F9184
:1025A000FF90EF90DF90CF90BF90AF909F907F9083
:1025B0006F905F904F9008950F93AB012EE531E03F
:1025C0003093E0052093DF0524EF31E03093DA0506
:1025D0002093D90510920A01109209013093DC056D
:1025E0002093DB052EEF3FEF3093DE052093DD05D2
:1025F00024E02093D80510920B010BE020E06AE460
:1026000071E00E946B120F910895CF93DF93EC015C
:10261000688979890E94DC1281E090E0998B888B2F
:10262000CE01DF91CF910C94570C0F93E5E4F1E0CC
:10263000F093E005E093DF05E2E8F0E0F093DA05DF
:10264000E093D90510920A0110920901E8E5F2E041
:10265000F093DC05E093DB05ECEFFFEFF093DE0594
:10266000E093DD0535E03093D80510920B01022F81
:10267000242FAB0161E371E00E946B120F9108956A
:10268000EF920F931F93CF93DF93EC010E94F5001D
:102690000E9422058430C1F1853089F1833029F40C
:1026A0008C85882311F081508C878B899C898D378C
:1026B000910579F46F8578892BE049E0CE010E947D
:1026C00015138F8598890196988B8F87CE010E946C
:1026D000010A8E8587FF35C08D8581113CC08B85B1
:1026E0008430C9F56F857889CE010E94DC1281E0C3
:1026F00090E0988B8F87CE010E94010A2CC08C85B8
:10270000833098F68F5FD0CF8CE291E090933D06B6
:1027100080933C0684EF91E090933B0680933A06C9
:1027200083E090E090933906809338068FEF9FEF17
:1027300090933706809336061092350682E08D8797
:10274000B4CF9B85943039F42C85082E000C990B5E
:102750002817190639F60E9424020D891E892F892F
:10276000388D6017710782079307E0F10E942402F9
:1027700029893A89620F731F811D911D6D8B7E8B94
:102780008F8B988F8D85181614F481508D870E9439
:102790005D3524EA36E040E050E00E94CB356853D6
:1027A0007F4F70933D0660933C068AEA90E09093D9
:1027B0003B0680933A0610923906109238068CEF49
:1027C0009FEF909337068093360681E0809335061D
:1027D0008B858F5F8530B1F18B878B899C890196C2
:1027E0009C8B8B8B6B8570E08E8587FF37C098E064
:1027F000E92E04E010E030E020E041E050E090E01D
:1028000080E00E94C0070E94240224E630E040E0FD
:1028100050E00E94FD35CA01B90123E030E040E0FC
:1028200050E00E94FD3541E0460F8C8564E070E089
:1028300090E00E944003DF91CF911F910F91EF90A4
:102840000C94BF081B860E945D3525E030E040E017
:1028500050E00E94CB3561506E87BFCF83E0E82EF9
:1028600004E010E030E020E041E050E090E080E063
:102870000E94C0076B8570E08E8540E0082E000C3A
:10288000990B0E944003BFCFCF92DF92EF92FF924D
:102890000F931F93CF93DF93EC010E94F5000E94EA
:1028A00022058930F0F4E82F880FFF0BE35AFB4E26
:1028B0009D852E853F850C943538661468146D14FB
:1028C0006F147114D014D214D414D71491509D875E
:1028D0002F5F3F4F3F872E8704C09F5FF8CF9150F7
:1028E0009D878E859F8597FF02C01F861E868D85DA
:1028F00087FD1D868D85843014F083E08D878E855D
:102900009F856AE070E00E942138892B31F4EB85C5
:10291000FC85E60FF71F80818A8B9B892C898A8929
:10292000921709F44CC0823011F08530D1F424EFB5
:1029300031E030933D0620933C062FEF30E030939A
:102940003B0620933A062EE130E03093390620937F
:10295000380626EF3FEF3093370620933606109265
:102960003506813031F5973049F524EC39E0309364
:102970003D0620933C062FEF30E030933B0620933A
:102980003A0628EF3FEF30933906209338062FEFB1
:102990003FEF3093370620933606109235060EC06F
:1029A0009F5F9ECF91509D872150310993CF9F5FAC
:1029B000FACF843009F08FC09923B9F29C8B823012
:1029C00009F47BC10CF0BCC0882309F4DEC081305F
:1029D00009F406C16889798925E0269FC001279FEF
:1029E000900D112488962E853F852817390768F0A9
:1029F0002BE049E0CE010E94151388899989019640
:102A0000998B888BCE010E94570C10E000E032E0D9
:102A1000E32EF12CD12CC12C8E859F850A96801B2C
:102A2000910B97FD019695958795B7010E942138E6
:102A30002C2D2595022E000C330B41E082179307B5
:102A400009F040E0B801C6010E944003FFEFCF1A31
:102A5000DF0A84E0C816D104F9F60F5F1F4F053076
:102A60001105C1F60E94240222E330E040E050E06C
:102A70000E94FD35CA01B90123E030E040E050E09A
:102A80000E94FD3541E0460F8D8564E070E0082E20
:102A9000000C990B0E9440038E859F852AE030E050
:102AA000B9010E9421384CEF480F9A89923009F4FD
:102AB0008FC10CF03AC1992309F446C1913009F451
:102AC00058C1DF91CF911F910F91FF90EF90DF9050
:102AD000CF900C94BF08882319F0833009F06ECF93
:102AE00091111CC028E833E130933D0620933C0649
:102AF0002FEF30E030933B0620933A062CEE3FEF69
:102B000030933906209338062EEF3FEF3093370687
:102B10002093360621E02093350650CF943009F0FB
:102B20004DCF2CE231E030933D0620933C0624EF5C
:102B300031E030933B0620933A0622E030E023CF89
:102B4000843009F486C00CF1853009F043CF0E942F
:102B50002402488959891CEF14039001159F300DF8
:102B6000112420573E4F50E040E00E94FD35CA013D
:102B7000B90124E130E040E050E00E94FD356B8B6C
:102B800023E130E0261B370BB2C00E9424024889A3
:102B900059891CEF14039001159F300D11242853FF
:102BA0003F4F50E040E00E94FD35CA01B90124E1E9
:102BB00030E040E050E00E94FD35262F6B8B8E8583
:102BC0009F856AE070E00E9421380597049708F01D
:102BD00001CF25300CF0FECECE010E940513FACEB7
:102BE0000E942402488959891CEF14039001159F03
:102BF000300D11242C593F4F50E040E00E94FD352C
:102C0000CA01B90124E130E040E050E00E94FD3506
:102C1000462F172F6B8B8E859F85EAE0F0E0BF0172
:102C20000E942138089709F0D5CE242F312F8D85A9
:102C3000082E000C990BE21BF30BE817F90761F261
:102C400049E050E0421B530B8417950709F0C2CEB0
:102C5000C3CF0E942402488959891CEF14039001B4
:102C6000159F300D11242C593F4F50E040E00E9439
:102C7000FD35CA01B90124E130E040E050E00E9496
:102C8000FD35262F6B8B8E859F856AE070E00E9454
:102C90002138089709F09ECE8D85281709F49CCF1E
:102CA000622F220F770B61507109082E000C990BCF
:102CB0006817790709F08ECE8FCF0E9424024889C9
:102CC00059891CEF14039001159F300D11242057D2
:102CD0003E4F50E040E00E94FD35CA01B90124E1B9
:102CE00030E040E050E00E94FD356B8B9B01F90124
:102CF000EA5FFC4F40818D85082E000C990B481728
:102D0000190609F067CE8E859F856AE070E00E9403
:102D10002138265E3C4FF9012081820F911D27FD4D
:102D20009A95089709F056CE57CF943009F43DC0D4
:102D30005CF0953009F0C5CE8B8923E130E0281B8B
:102D4000310987FD339548C08B8965E00E94FF37C4
:102D500006E0081B24E0281B022E000C330B642F16
:102D6000440F770B44E050E090E080E00E945A0767
:102D7000A8CE042F440F110B8B8943E0B801F90151
:102D8000E81BF10987FDF395CF010E9440039B8961
:102D900043E0B80129E030E0F901E91BF10997FDB2
:102DA000F395CF010E9440038CCE042F440F110BEA
:102DB0008B8943E0B801082E000C990B0E94400358
:102DC0008B89082E000C990B43E0B8010197EACFDC
:102DD0002B89022E000C330BF901E65EFC4F80813B
:102DE000642F440F770B680F711D87FD7A952A5F5A
:102DF0003C4FF90180814FE090E0D4CFCF92DF9239
:102E0000EF92FF920F931F93CF93DF93EC010E94F9
:102E1000F50084E00E94E304882321F08D8991E08D
:102E200089278D8B81E00E94E304882399F1EB8848
:102E3000FC8887010150110969897A89A801CE01AE
:102E40000E948504813031F11E141F041CF51C8B77
:102E50000B8B0E945D3524EA36E040E050E00E9492
:102E6000CB3568537F4F70933D0660933C068AEAEA
:102E700090E090933B0680933A06109239061092A8
:102E800038068CEF9FEF909337068093360681E0EB
:102E90008093350683E00E94E304882399F1E98852
:102EA000FA888701015011094B895C89B801CE016C
:102EB0000E948504813031F11E141F041CF51A8B09
:102EC000098B0E945D3524EA36E040E050E00E9424
:102ED000CB3568537F4F70933D0660933C068AEA7A
:102EE00090E090933B0680933A0610923906109238
:102EF00038068CEF9FEF909337068093360681E07B
:102F00008093350685E00E94E3048823B1F1E988C7
:102F1000FA8887010F5F1F4F4B895C89B801CE018A
:102F20000E948504813049F18D859E850197E816C0
:102F3000F9061CF51A8B098B0E945D3524EA36E0F0
:102F400040E050E00E94CB3568537F4F70933D06C0
:102F500060933C068AEA90E090933B0680933A06A1
:102F600010923906109238068CEF9FEF9093370637
:102F70008093360681E08093350687E00E94E30463
:102F80008823B1F1EB88FC8887010F5F1F4F6989A7
:102F90007A89A801CE010E948504813049F18F858C
:102FA00098890197E816F9061CF51C8B0B8B0E947B
:102FB0005D3524EA36E040E050E00E94CB356853AE
:102FC0007F4F70933D0660933C068AEA90E09093B1
:102FD0003B0680933A0610923906109238068CEF21
:102FE0009FEF909337068093360681E080933506F5
:102FF00010E000E0680182E0C81AD1089EEFE92ED7
:10300000FF24FA944B895C894C0D5D1D57FD7FC0F0
:103010008F859889481759070CF079C069897A8992
:103020006E0D7F1D77FD73C08D859E8568177907AE
:103030000CF06DC0CE010E948504813009F457C0A8
:1030400008F465C0823009F457C08FEFE81AF80A17
:1030500082E0E816F104B1F60F5F1F4F053011054D
:1030600049F60E94240224E630E040E050E00E944D
:10307000FD35CA01B90123E030E040E050E00E9494
:10308000FD356F5F6093E5064B895C8969897A89B4
:1030900022E0CE010E94B4048B899C89892BC9F55A
:1030A0008D859E85BC016350710977FF02C06F5FFB
:1030B0007F4F759567952BE049E0CE010E9415136F
:1030C0006D857E856E5F7F4F7E876D874F855889C2
:1030D0004E5F5F4F588B4F87CE01DF91CF911F918D
:1030E0000F91FF90EF90DF90CF900C94CB0E4FE0BC
:1030F000B801C701029608C0C70102962D8941E0B8
:10310000211101C040E0B8010E9440039ECF40E081
:10311000EFCFDF91CF911F910F91FF90EF90DF9054
:10312000CF900C94BF088F929F92AF92BF92CF9294
:10313000DF92EF92FF920F931F93CF93DF93EC01F7
:103140000E94F5000E94220587FD07C083300CF421
:1031500012C18650833008F414C18BA19CA18D3715
:10316000910579F46F8D78A12BE049E0CE010E94A2
:1031700015138F8D98A1019698A38F8FCE010E9471
:103180009C058D859E852F853889281739072CF455
:103190002F89388D8217930764F06F8D78A1CE0147
:1031A0000E94DC1281E090E098A38F8FCE010E94F4
:1031B0009C052D853E8588E592E02B30310584F411
:1031C000213F8FEF38070CF4E0C044ED5EEF249F01
:1031D000C001259F900D349F900D1124805F914F69
:1031E00090933D0680933C0682E390E090933B06EB
:1031F00080933A06109239061092380688EF9FEFB6
:10320000909337068093360681E0809335060E94BE
:1032100024020DA11EA12FA138A5601771078207F6
:10322000930708F458C00E94240229A13AA1620F12
:10323000731F811D911D6DA37EA38FA398A78989FC
:103240009A89988B8F87898D9A8D988F8F8B8B8990
:103250009C899A8B898B8B8D9C8D9A8F898F8D8978
:103260009E899C8B8B8B8D8D9E8D9C8F8B8F0E94CE
:103270005D3523E030E040E050E00E94CB35613026
:1032800071058105910509F483C0623071058105DE
:10329000910509F480C0672B682B692B29F48B8971
:1032A0009C8901979E8B8D8B8D899E892B853C8572
:1032B000820F931F9E8F8D8F8BA19CA101969CA343
:1032C0008BA36EE170E00E940D388AE090E0861BCF
:1032D000970B9C878B872BA13CA1C901969587955D
:1032E000969587954D855E85841B950B65E070E00E
:1032F0000E940D382095309541E0BC01C9018370D2
:1033000099270E9440036E01F12CE12CF601878978
:10331000908D27853089821B930B069761F410E00E
:1033200000E041E0B801C7010E9440030F5F1F4F5A
:1033300005301105B1F7F601078510890E5F1F4FA3
:103340008D859E85081B190B17FD29C0912C812C9A
:10335000A02E002E000CBB08802F881987FD1FC0EF
:10336000B5016819790945E0C7010E944003FFEFE4
:103370008F1A9F0AF1CF8D859E8501979E878D8735
:10338000ECCE8D859E850196F9CF84EA9FE128CF0A
:103390008B899C8987CF8B899C89019683CFF60185
:1033A0000789108D0E5F1F4F8D859E85081B190B99
:1033B00005301105ACF4912C812CA02E002E000CB0
:1033C000BB08882D800F85305CF4B501680D791D30
:1033D00045E0C7010E944003FFEF8F1A9F0AF1CF1B
:1033E0008FEFE81AF80AE2E0CE0ED11CF4E0EF16F7
:1033F000F10409F08BCF8FE08093E306DF91CF914A
:103400001F910F91FF90EF90DF90CF90BF90AF9002
:103410009F908F900C94BF08EF92FF920F931F9391
:10342000CF93DF93EC018EA19FA1A8A5B9A5892B0D
:103430008A2B8B2B81F40E9424020AA51BA52CA5A4
:103440003DA5DC01CB01800F911FA21FB31F8EA3EE
:103450009FA3A8A7B9A70E94F5000E9424020EA16D
:103460001FA128A539A56017710782079307E0F00F
:103470000E9424020AA51BA52CA53DA5DC01CB01B9
:10348000800F911FA21FB31F8EA39FA3A8A7B9A748
:10349000FE01CE01409721A125A33197E817F90736
:1034A000D1F7CE010E94810E8E010E5E1F4F9E014C
:1034B0002A5D3F4F81E07801F80191918F01990FCA
:1034C000990B89232E173F07B9F78823D9F06EA5EA
:1034D0007FA528E040E0CE010E9415138AA59BA598
:1034E000ACA5BDA5885C9109A109B1098AA79BA7D4
:1034F000ACA7BDA78EA59FA501969FA78EA7CE01BD
:103500000E94AA0EFE01B29680E0919197FF81E0A1
:10351000E017F107D1F78823A1F06EA57FA5CE01B2
:103520000E94DC1280EA9FE0A0E0B0E08AA79BA79F
:10353000ACA7BDA781E090E09FA78EA7CE010E9417
:10354000AA0EC7010E94AF0889E00E94E304882305
:1035500029F08B85181614F481508B878BE00E941C
:10356000E304882329F08B85833014F48F5F8B87E5
:103570008AE00E94E304882359F18D8587FF28C0E3
:103580008B858C8783E08D870E942402605B7F4F50
:103590008F4F9F4F6E877F87888B998B84EC99E044
:1035A00090933D0680933C068FEF90E090933B060E
:1035B00080933A0688EF9FEF909339068093380600
:1035C0008FEF9FEF90933706809336061092350663
:1035D000EB850E2E000CFF0BE551F94F8FE0808339
:1035E000ED85E7FD0EC09C8597FD0BC024E0E2024F
:1035F000F0011124E90FF11D97FDFA95E552F94FFD
:103600008083ED85E7FD2DC084E0E802F001112400
:103610008C85E80FF11D87FDFA95EC0FFD1F82895F
:103620001816FCF48F57828B8FEF8D8788E893E113
:1036300090933D0680933C068FEF90E090933B067D
:1036400080933A068CEE9FEF90933906809338066C
:103650008EEF9FEF909337068093360681E080933C
:1036600035068D8587FD18C00E9424020E851F85B2
:1036700028893989601771078207930768F00E94CB
:103680002402605B7F4F8F4F9F4F6E877F87888BB1
:10369000998B8D8581508D87DF91CF911F910F91EF
:1036A000FF90EF900C94BF082F923F924F925F9241
:1036B0006F927F928F929F92AF92BF92CF92DF9242
:1036C000EF92FF920F931F93CF93DF93CDB7DEB7A7
:1036D00060970FB6F894DEBF0FBECDBF5C014C0102
:1036E00029E4820E911CD4018D919C91883C910516
:1036F00040F1F501E35BFF4F80819181883C9105AA
:1037000000F1329780819181883C9105D0F0369606
:1037100080819181883C9105A0F0329780819181D0
:10372000883C910570F0C5010E94CF05813049F4B5
:103730002BE040E061E070E0C5010E9415130C949D
:1037400000000E942402F501078D10A121A132A1E1
:10375000061717072807390710F011E060C40E9408
:10376000F500D5015096EC915097E830B0F70E2E49
:10377000000CFF0BE254F44E0C943538C61B081EA7
:10378000BC1E921FDE1EA020D520461E1F96EC9167
:10379000E93010F00C941A2E0E2E000CFF0BED5297
:1037A000F44E0C943538DC1B371DDC1B0C1C8F1CB5
:1037B0001A2E8A1C5A1CDC1BF501EB5BFF4FFE879F
:1037C000ED874081518121E130E04115510511F42F
:1037D0002DE030E0C5018D5B9F4F988B8F87DC011A
:1037E000ED91FC91D5011D968D919C91309711F032
:1037F0000C94372E452B11F00C94D4294EE050E058
:1038000062E070E0681B790BEF2B11F40C94DA295D
:103810008BEF9FEF0C94DC297501FFE3EF0EF11C99
:10382000D7014D915C91475F5F4F82E090E0F501D9
:1038300025853685BC01621B730B0384F485E02D5E
:103840000FE09A018E1B9F0B0E94CC070E9424025E
:1038500024E630E040E050E00E94FD35CA01B901A5
:1038600023E030E040E050E00E94FD356F5F609360
:10387000E506D501DC968C918150833018F0C501A6
:103880000E948A0CF70160817181D5011D968D918E
:103890009C911E97681B790B665F7F4F1B962D913D
:1038A0003C9142E087E090E0821B930B0E94400332
:1038B0000C941A2E7501B3E4EB0EF11CF701408154
:1038C0005181475F5F4F82E090E0D5011D962D91B9
:1038D0003C911E97BC01621B730B1B96ED91FC91F2
:1038E0000FE09A018E1B9F0B0E94CC070E942402BE
:1038F00024E630E040E050E00E94FD35CA01B90105
:1039000023E030E040E050E00E94FD356F5F6093BF
:10391000E506B5CF7501B5E4EB0EF11CCFCF82E023
:1039200090E0F50125853685BC01621B730B03848D
:10393000F485E02D0FE02AE030E04AE050E08E1BF5
:103940009F0B0E94CC0714E0C12ED12CD5011D96EF
:103950008D919C911E97B601681B790B1B968D91DA
:103960009C910FE0E02E03E010E021E030E050E019
:1039700040E0F601E81BF90BCF010E94C007D5011A
:103980001D968D919C911E9765E070E0681B790BE8
:103990001B968D919C9130E020E041E050E0F601D3
:1039A000E81BF90BCF010E94C00786E090E0D5012B
:1039B0001D962D913C911E97BC01621B730B1B96AB
:1039C0002D913C914FE0821B930B0E94400383E0BA
:1039D000682E712CF50185859685B301681B790BDE
:1039E0000384F485E02DCC24C39492E0E92E05E015
:1039F00010E021E030E050E040E089E090E08E1BF4
:103A00009F0B0E948B07D5011D968D919C911E974F
:103A1000B301681B790B1B96ED91FC9121E030E01E
:103A200050E040E08AE090E08E1B9F0B0E948B07E5
:103A3000F50185859685B301681B790B0384F485B0
:103A4000E02D27E0E22E21E030E050E040E088E089
:103A500090E08E1B9F0B0E94C007D5011D968D9193
:103A60009C911E976BE070E0681B790B17CF2501C6
:103A7000B7E44B0E511CF20180819181AC01465F8D
:103A80005F4F22E0622E712CD5011D962D913C9145
:103A90001E97B301621B730B9195819591091B963B
:103AA0002D913C91821B930B0FE09A0102960E948C
:103AB000CC0733E0232E312CF50185859685B101A5
:103AC000681B790B0384F485E02DCC24C39442E079
:103AD000E42E04E010E021E030E050E040E089E036
:103AE00090E08E1B9F0B0E948B07D5011D968D9138
:103AF0009C911E97B101681B790B1B96ED91FC916F
:103B000021E030E050E040E08AE090E08E1B9F0B27
:103B10000E948B0754E0252E312CF5018585968572
:103B2000B101681B790BA8E0CA2ED12C838594853E
:103B3000B7E0EB2E21E030E050E040E0D601A81BDA
:103B4000B90BCD010E94C007F5018585968567E018
:103B500070E0681B790B8385948503E010E030E00A
:103B600020E041E050E0D601A81BB90BCD010E9436
:103B7000C007F20180819181009711F40C941A2EF4
:103B8000AC014D5F5F4FD5011D962D913C911E9765
:103B9000B101621B730BF301E81BF90BCF011B96FC
:103BA0002D913C91821B930B02E09A0102960E9498
:103BB000CC07D2018D919C91F50125853685BC01FC
:103BC000621B730B695F7F4F9301281B390BC9017F
:103BD00023853485821B930B42E002960E944003AA
:103BE000D2016D917C91F50185859685681B790BD5
:103BF000695F7F4F2385348542E086E090E0821B39
:103C0000930B0E944003C5010E948A0C0C941A2E4B
:103C10008E010F5F1F4F8AE0D8011D928A95E9F748
:103C2000F50183AD8F9382AD8F9381AD8F9380AD7E
:103C30008F938AE795E09F938F931F930F930E9432
:103C40006C390E942402D5015296CD90DD90ED9002
:103C5000FC9055976C197D098E099F0928EC30E07E
:103C600040E050E00E94FD35CA01B90124E230E095
:103C700040E050E00E94FD3541E0C8010E94750817
:103C80000FB6F894DEBF0FBECDBF67CD8E010F5FBC
:103C90001F4F8AE0D8011D928A95E9F7F5018785C3
:103CA000833089F11CF5813009F448C00E94240258
:103CB000D5015296CD90DD90ED90FC9055976C1902
:103CC0007D098E099F0928EC30E040E050E00E9419
:103CD000FD35CA01B90124E230E040E050E00E9425
:103CE000FD3541E0C8010E94750837CD8630D9F115
:103CF0008730E1F6E55BFF4F81818F9380818F9361
:103D000088E995E023C0E35BFF4F81818F93808139
:103D10008F93D40111968C9111978F938C918F93DF
:103D200081E895E09F938F931F930F930E946C39C6
:103D30000FB6F894DEBF0FBECDBFB8CFEF5AFF4F1E
:103D400081818F9380818F938CE895E09F938F93EF
:103D50001F930F930E946C390F900F900F900F904C
:103D60000F900F90A3CFE15BFF4F81818F938081F4
:103D70008F9382E995E0EACF0E942402F50102893F
:103D8000138924893589601B710B820B930B20EDFD
:103D900037E040E050E00E94FD35C50120FF03C040
:103DA0000E948E06DACC0E94CF05F4E18F02C0019A
:103DB000112482529D4F0E94AF08CFCC5E968C9109
:103DC000B4E18B02C0011124825C9D4F0E94AF08B8
:103DD0000E942402F501028D138D248D358DAB01D7
:103DE000BC01401B510B620B730B868D082E000C1F
:103DF000990B0196E8EEF3E08E9F90018F9F300DB6
:103E00009E9F300D1124C901330FAA0BBB0B48171D
:103E100059076A077B0708F4A0CC0E942402D50149
:103E20005A966D937D938D939C935D975E968C913E
:103E30005E978F5F5E968C935E97873009F08DCC8E
:103E40001D960D911C911E971B962D913C911C97D0
:103E50001F964C9160E0C5010E945B1184EC99E0D3
:103E600090933D0680933C068FEF90E090933B0645
:103E700080933A0610923906109238068FEF9FEF22
:103E8000909337068093360610923506F50184AD7F
:103E90008230C1F1A4F4882301F1813009F05DCCB6
:103EA000ED5BFF4F80819181892B21F1F501E55B6D
:103EB000FF4F808191814496918380834ECC8330E3
:103EC00051F1843009F049CC80AD91ADA2ADB3ADD4
:103ED00084549D4FAF4FBF4F08C080AD91ADA2AD90
:103EE000B3AD8C509E4FAF4FBF4F80AF91AFA2AFDD
:103EF000B3AF33CCD4018D919C91119744968D939F
:103F00009C932BCC80AD91ADA2ADB3AD8854944FB2
:103F1000AF4FBF4FEACFED5BFF4F80819181892B7F
:103F200029F61BCC1F968C911F9711E081112DC093
:103F300051962C91022E000C330B2350310944E191
:103F4000429FC001439F900D11248A539E4F0E94AF
:103F5000AF08F5010189802F0E941501B0E0A0E0B3
:103F600011E0F50140AD51AD62AD73AD4817590791
:103F70006A077B0708F410E0043009F0B9C0F501C6
:103F8000EF5BFF4F80818111BDC0C5010E94D0064B
:103F9000882321F1D50151968C91B4E18B02C001A7
:103FA00011248E599E4F0E94AF08F501818940ADC2
:103FB00051AD62AD73AD452B462B472B09F410E094
:103FC000823009F4B5C00CF09FC0882309F4A7C063
:103FD000F501E35BFF4F813009F49EC0C5010E94EB
:103FE000E3068823E1F0F5018189F4E18F02C00145
:103FF00011248E599E4F0E94AF08D50151968C9185
:104000000E942F01B0E0A0E0F50140AD51AD62ADDE
:1040100073AD481759076A077B0708F4B0C0D5018C
:1040200050968C91833021F08550823008F048C042
:10403000111102C00E9420070E942402F501C688C7
:10404000D788E08CF18C6C197D098E099F096C3240
:10405000714081059105A0F52BED36E03E872D8757
:104060008EE1C82ED12CE12CF12C9AE0492E512C56
:10407000612C712C0E942402AD85BE850D91BE87F6
:10408000AD871D01B1E02B1A3108F501268937896A
:10409000408D518D621B730B840B950BA70196010C
:1040A0000E94FD35D301C201821B930BA40BB50BFB
:1040B000080FD1010C93ED85FE85EF5EF640D1F639
:1040C0000E9422058C3008F074C3E82F880FFF0B84
:1040D000E459FF4D0C94353810299E21BA293A2312
:1040E000DD25CE23AD25BA24CA2538287D29F72819
:1040F000083009F04ACFF501EE5BFF4F80818F3F1A
:1041000009F043CF10E041CF8330B1F0F501EF5A11
:10411000FF4F843009F062CF8081918103C0D401C8
:104120008D919C91883C910508F458CF10E056CFB2
:10413000F501E55BFF4FF0CFF501E15BFF4FECCF01
:1041400051968C91B4E18B02C00111248E599E4F7F
:104150000E94AF08F50181890E945009D50151964E
:104160008C918130C1F06CF48111F7CA11E0F50136
:10417000EE59FF4F80819181892B09F050CF10E0DB
:104180004ECF823069F0833009F0E7CA11E0F501C3
:10419000E859FF4FEFCF11E0F501EC59FF4FEACF9F
:1041A00011E0F501EA59FF4FE5CF0E942402F50125
:1041B0000289138924893589AB01BC01401B510B4D
:1041C000620B730B8189483E53406105710588F588
:1041D00024E18202C00111248E599E4F0E94AF0833
:1041E000D50151968C918230D1F054F4882391F00E
:1041F000813009F0B2CA11E0F501E95AFF4FBACF98
:10420000833091F0843009F0A8CA11E0F501E55A35
:10421000FF4FB0CF11E0F501ED5AFF4FABCF11E0EA
:10422000F501EB5AFF4FA6CF11E0F501E75AFF4F1A
:10423000A1CF8E010F5F1F4F9AE0F80111929A955E
:10424000E9F7823009F45CC0ECF4882379F181301D
:1042500009F447C00E942402F501C288D388E4888B
:10426000F5886C197D098E099F0928EC30E040E043
:1042700050E00E94FD35CA01B9012CE130E040E078
:1042800050E02DCD833009F44AC0843019F7F50190
:10429000E55AFF4F808191813A97608171810E9438
:1042A0000D387F936F938CE895E00EC0F501ED5AC1
:1042B000FF4F80819181D4016D917C910E940D38D6
:1042C0007F936F938EE995E09F938F931F930F9346
:1042D0000E946C390F900F900F900F900F900F90DD
:1042E000B9CFF501E95AFF4F808191813A976081FA
:1042F00071810E940D387F936F9386E895E0E4CF3B
:10430000F501EB5AFF4F808191813A97608171816D
:104310000E940D387F936F9388E995E0D5CFF50122
:10432000E75AFF4F808191813A97608171810E94A5
:104330000D387F936F9382E995E0C6CFD5015096F3
:104340008C91833019F085508230A0F4F5014785B7
:10435000411107C001E010E021E030E040E060E002
:1043600085C1D5011D960D911C911E971B962D910F
:104370003C91F5CF8091E106843050F5F5018585BB
:1043800096850197968785870E945D3524EA36E0F9
:1043900040E050E00E94CB3568537F4F70933D065C
:1043A00060933C068AEA90E090933B0680933A063D
:1043B00010923906109238068CEF9FEF90933706D3
:1043C0008093360681E080933506C5010E94321144
:1043D000D5011F968C911F9781111BC01B968D9143
:1043E0009C911C970497A9F41D968D919C91079719
:1043F00081F4F501EF5BFF4F8081882351F008E0E5
:1044000010E025E030E044E0F5016089C5010E943C
:104410005B11D5011F968C911F9781114EC01B9681
:104420008D919C911C97099709F047C01D968D911D
:104430009C91089709F041C03501BFE36B0E711CD8
:10444000F301E080F180D501DC968C91DC978150FE
:10445000833028F19B961C921E929A97B6E0EB0E41
:10446000F11CF40160817181670101E010E021E03D
:1044700030E040E0C5010E94C30DD301ED90FC90F7
:10448000B6E0EB0EF11CF501E35BFF4F608171813B
:10449000670121E030E041E0C5010E94C30DF30156
:1044A00000811181095F1F4F25E030E043E0D50115
:1044B00050966C91C5010E945B11F50187858111B1
:1044C00034C083859485029681F5D5011D968D9122
:1044D0009C911E97069749F59B961C921E929A975F
:1044E0004501B3E48B0E911CF401E080F180F6E00D
:1044F000EF0EF11CF501E55BFF4F608171816701F3
:1045000001E010E021E030E042E0C5010E94C30D6F
:10451000D4010D911C91095F1F4F25E030E047E069
:10452000F5016089C5010E945B11D5011F968C9130
:104530001F97811135C01B968D919C911C970997EF
:1045400079F51D968D919C911E97029749F59B9642
:104550001C921E929A974501B5E48B0E911CF401B2
:10456000E080F180F6E0EF0EF11CF501E15BFF4F1A
:1045700060817181670101E010E021E030E043E0FB
:10458000C5010E94C30DD4010D911C91095F1F4FFD
:1045900025E030E046E0F5016089C5010E945B112D
:1045A000D5011F968C91982F9D7F21F0883011F0B6
:1045B0000C943D2EF501238534852430310559F4C2
:1045C000258536852832310531F421E030E0348705
:1045D000238736872587843091F5D5011B968D91E9
:1045E0009C911C9707975CF11D968D919C911E974D
:1045F000019729F59B961C921E929A97F501E95B0B
:10460000FF4F808191817C01BFEFEB1AFB0A23E011
:1046100030E0281B390B3A9660817181670103E015
:1046200010E044E0C5010E94C30DF5010585168523
:104630002385348541E06089C5010E945B11D50165
:104640001F968C911F97823009F0B3C01D968D91F3
:104650009C911E970D9709F0ACC01B962D913C9133
:104660001C970DE010E040E050966C91C5010E944F
:104670005B119FC0F5010089033029F08BEF800F9B
:10468000823008F04BC0D50151968C9151978150E2
:1046900051968C9351971F961C911F97111105C02D
:1046A00083301CF488E051968C93C5010E94D0069B
:1046B000811105C0C5010E94E306882331F0F50190
:1046C000818987FF02C084E0818B1330B1F4D5016A
:1046D00051968C91519787FF03C081E051968C933E
:1046E000063009F066C00E942402D50152966D93EF
:1046F0007D938D939C9355975CC0812F8B7F8130E8
:1047000041F484E0F501818B173051F7F501118BED
:10471000E7CF1630C9F783E0D501E0CF8091E406FA
:10472000843048F583859485019794878387C501F4
:104730000E9432110E945D3524EA36E040E050E0EC
:104740000E94CB3568537F4F70933D0660933C06C3
:104750008AEA90E090933B0680933A0610923906DD
:10476000109238068CEF9FEF9093370680933606B1
:1047700081E080933506D5011F968C911F97883074
:10478000C1F41B968D919C911C970E9791F41D96E8
:104790000D911C911E972EE030E065CFF501108938
:1047A000133031F10CF5112309F46DC0123009F406
:1047B00011C20E94BF0860960FB6F894DEBF0FBE0C
:1047C000CDBFDF91CF911F910F91FF90EF90DF90C0
:1047D000CF90BF90AF909F908F907F906F905F90A1
:1047E0004F903F902F9008958BEF810F823008F704
:1047F000D50151968C9151978F5F51968C9351971B
:104800001F960C911F97011105C089301CF083E0A1
:1048100051968C93C5010E94D006811105C0C50137
:104820000E94E3068823A9F0F501818985308CF088
:10483000D50151961C92033099F4D50151968C9173
:104840005197823014F051961C92163009F0B1CF76
:104850004ACF153081F7F501818984304CF7EBCFD1
:10486000802F8B7F813041F484E0F501818B07300C
:1048700061F7F501018BE9CF0630C9F783E0D50177
:1048800051968C93E2CF8091E606843048F583857B
:104890009485019694878387C5010E9432110E94F6
:1048A0005D3524EA36E040E050E00E94CB356853A5
:1048B0007F4F70933D0660933C068AEA90E09093A8
:1048C0003B0680933A0610923906109238068CEF18
:1048D0009FEF909337068093360681E080933506EC
:1048E000D5011F968C911F97811163CF1B968D91D7
:1048F0009C911C970E9709F05CCFDC968C91DC970D
:104900008150833060F59B961C921E929A973501D8
:10491000B2E46B0E711CF301E080F12CF6E0EF0EB7
:10492000F11CD4016D917C91670103E010E02FE050
:1049300030E040E0C5010E94C30DF301E080F12C9E
:10494000F6E0EF0EF11CF501E35BFF4F6081718132
:1049500067012FE030E041E0C5010E94C30DD501A1
:104960001D960D911C911E971B962D913C911C97A5
:1049700048E07ACEF5018089833019F08550823085
:1049800040F4D5011F964C911F97442309F4E2CCC3
:10499000E9CC8091E906843048F5858596850196B5
:1049A00096878587C5010E9432110E945D3524EAF1
:1049B00036E040E050E00E94CB3568537F4F709363
:1049C0003D0660933C068AEA90E090933B06809314
:1049D0003A0610923906109238068CEF9FEF9093AA
:1049E00037068093360681E080933506D5011F9601
:1049F0008C911F978430B1F41B968D919C911C97DC
:104A0000059781F41D968D919C911E97099751F4FD
:104A100008E010E024E030E040E050966C91C501E1
:104A20000E945B11F50187858330D1F483859485DD
:104A30000597B1F4FF96808191810896D5011D9666
:104A40002D913C911E972817390751F409E010E089
:104A500029E030E040E050966C91C5010E945B1166
:104A6000F50187858730D9F4838594850597B9F456
:104A7000ED5BFF4F808191810896D5011D962D91A8
:104A80003C911E972817390751F407E010E02EEFEC
:104A90003FEF40E050966C91C5010E945B11F5011B
:104AA00087858630D9F4838594850597B9F4EB5BC7
:104AB000FF4F808191810896D5011D962D913C91E3
:104AC0001E972817390751F403E010E029E030E081
:104AD00040E050966C91C5010E945B11F5018785FD
:104AE000813081F423853485273031055CF085855C
:104AF0009685049739F404E010E044E06089C5012C
:104B00000E945B11D5011F968C911F97811115C0D2
:104B10001D960D911C911E970D30110574F01B967A
:104B20002D913C911C97C9010297059730F442E002
:104B300050966C91C5010E945B11F501878582300A
:104B400009F037CE058516850D3011050CF031CEF4
:104B50002385348540E0608989CDD5011F964C912D
:104B60001F971D960D911C911E971B962D913C91A0
:104B70001C9750968C9162E0823009F4F0CBC5010D
:104B80000E945B110E942402F501628B738B848B5F
:104B9000958B0FCED5011F964C911F971D960D91A9
:104BA0001C911E971B962D913C911C9750968C91B1
:104BB000813009F4D4CB61E0E2CFD50150968C91DD
:104BC0005097833009F467C0DCF48823A9F1823060
:104BD00009F0EFCDF50105851685238534854785D8
:104BE00064E0C5010E945B110E942402D5015A961F
:104BF0006D937D938D939C935D975E961C92D9CD1A
:104C0000853009F4B9C1863009F0D3CD112309F4F8
:104C1000D0CDF5018189823009F40DC20CF0DCC1E0
:104C2000882309F4E8C1813009F4FBC1C5010E9461
:104C30003C1261E088E073C1F501878581110DC0E8
:104C4000058516852385348540E063E0C5010E9413
:104C50005B1183E0D50151968C93C5010E94D0066B
:104C6000811106C0C5010E94E306882309F4A1CD85
:104C7000F50184AD8D7F813009F09BCD05851685CA
:104C800023853485478563E0C5010E945B11D5010A
:104C900051961C928ECDF501878581110CC08189BA
:104CA000853009F457C0ECF4833071F18430C9F1D8
:104CB000C5010E943C12C5010E94E306882309F445
:104CC000ABC0D50151968C91823009F4D3C00CF061
:104CD00065C0882309F47CC0813009F4B2C010E0BB
:104CE00090C0873009F450C00CF444C0883001F7FC
:104CF00085010E5B1F4FD8018C918F3FC9F290E068
:104D00009C878B8788E017C083E00E94150121E013
:104D100030E0AC01B501615C7F4FC5010E94743089
:104D2000C7CF85010F5B1F4FD8018C918111C0CF78
:104D30001C861B8684E00E94150121E030E0AC0156
:104D4000BE01655F7F4FC5010E9474308B85F801FD
:104D50008083AECFEF5BFF4F8081882309F4A8CF1B
:104D600085E00E94150121E030E0AC01B501695BEE
:104D70007F4FD3CF86E00E94150121E030E0AC01E7
:104D8000B5016B5B7F4FC9CF87E00E94150121E021
:104D900030E0AC01B5016D5B7F4FBFCF833009F4CC
:104DA0007DC0843009F09BCFF501E95BFF4F808126
:104DB0009181892B09F493CF85010F5A1F4FF80178
:104DC00080819181883C910508F089CF84E04BC0B7
:104DD000F501FF9680819181892B09F480CFF40140
:104DE00080819181883C910508F079CF80E00E9414
:104DF0002F0121E030E0AC01B401C5010E94743004
:104E0000182FC5010E943C12112331F061E0D50139
:104E100051968C910E946109C5010E94D006882399
:104E200009F4C7CCF5018189823009F489C00CF0FE
:104E300049C0882309F45AC0813009F473C010E0D6
:104E400065C0F501FF9680819181892B09F447CFD8
:104E50008501035B1F4FD8018D919C91883C910582
:104E600008F03DCF81E00E942F0121E030E0AC014D
:104E7000B801C3CFF501ED5BFF4F80819181892B94
:104E800009F42DCF8501055B1F4FF80180819181C9
:104E9000883C910508F023CF82E0E5CFF501EB5B7C
:104EA000FF4F80819181892B09F419CF8501015B26
:104EB0001F4FD8018D919C91883C910508F00FCF30
:104EC00083E0D1CF833009F449C0843009F0B7CFF3
:104ED000EF5AFF4F208131812115310509F4AFCF01
:104EE00041E050E0B501655A7F4F0CC0D4012D91CF
:104EF0003C912115310509F4A2CF41E050E0B50104
:104F00006D5A7F4FC5010E947430182FC5010E9451
:104F10003C12112309F44DCC61E0F50181890E9416
:104F2000610947CCE35BFF4F2081318121153105B9
:104F300009F485CF41E050E0B501695A7F4FE2CFD7
:104F4000E55BFF4F208131812115310509F477CFD1
:104F500041E050E0B5016B5A7F4FD4CFE15BFF4F8A
:104F6000208131812115310509F469CF41E050E0FC
:104F7000B501675A7F4FC6CFC5010E94D00688236E
:104F800041F0D50151968C918130D1F034F48823D1
:104F900071F0C5010E943C120CCC8230B9F0833014
:104FA000C1F747E050E0B50168597F4F05C049E1BE
:104FB00050E0B5016E597F4FC5010E94F606E9CF5A
:104FC00049E150E0B5016C597F4FF6CF42E350E024
:104FD000B5016A597F4FF0CF833009F440C0843067
:104FE00009F024CEAF59BF4F8C91811122C0950199
:104FF000255A3F4F28C0A501435A5F4FDA018C91D3
:1050000081110BC01A978D919C911197F401208109
:105010003181821B930B8D939C9381E0DA018C93F9
:1050200005CEA15ABF4F8C919501295A3F4F882335
:1050300051F081E0F4CFA25ABF4F8C9195012B5AC9
:105040003F4F8111F6CFF901808191813A974081DC
:105050005181841B950BF90191838083EACFA05A7B
:10506000BF4F8C919501275A3F4F882361F3E1CFC1
:10507000D501DC968C91982F9D7F19F0843009F032
:1050800098CBF5014785433081F4D4018D919C91F3
:10509000009759F0ED5AFF4F2081318128173907C9
:1050A00020F03A968081882389F0F501E35BFF4F79
:1050B000808191810097E9F03A962081318128170B
:1050C0003907B8F038968081811113C0F501058544
:1050D00016852385348566E0C5010E945B11D501E4
:1050E00051961C920E942402F501628B738B848B73
:1050F000958BD5011F968C91873031F5F501E55BD5
:10510000FF4F808191810097F9F03A96208131819B
:1051100028173907C8F039968081811115C0F5012B
:10512000058516852385348547E066E0C5010E9424
:105130005B1182E0D50151968C930E942402F50107
:10514000628B738B848B958BD5011F968C918630E7
:1051500031F5F501E15BFF4F808191810097F9F016
:105160003A962081318128173907C8F03796808117
:10517000811115C0F501058516852385348546E026
:1051800066E0C5010E945B1183E0D50151968C93C6
:105190000E942402F501628B738B848B958BD50161
:1051A0001F968C91813009F004CBF501EF5AFF4F27
:1051B00080819181009709F4FCCA3A96208131815F
:1051C0002817390708F4F5CA369680818111F1CA8B
:1051D000F501058516852385348541E066E0C50126
:1051E0000E945B1184E0D50151968C93CBCCD50104
:1051F0001F968C91823009F0DCCAC5010E94D0064E
:10520000882309F4D6CAF50184AD8D7F813009F079
:10521000D0CA058516852385348542E065E034CD06
:10522000F50184AD982F9D7F913009F02CC5E35A8C
:10523000FF4F20812223B1F0D5011F962C911F979B
:10524000233081F4D4962C9121110CC03596208105
:105250003181D4014D915C91240F351F318320831E
:10526000F50194AB823019F5F501E15AFF4F8081C9
:10527000882309F48ECED5011F968C911F97833019
:1052800009F087CED5968C91D597811182CEAC59F5
:10529000BF4F8D919C911197729720813181820F20
:1052A000931F8D939C9381E0F50185AB72CE813085
:1052B00009F06FCEF501E25AFF4F9081992309F46E
:1052C00068CED5011F969C911F97973009F061CE4B
:1052D000D6969C9191115DCE3896208131812F5FB9
:1052E0003F4F318320837B972081318121503109C9
:1052F00031832083F50186AB4CCED501DC968C91B1
:10530000DC978F5F863071F1DC968C93D501DC964B
:105310008C91982F9D7F11F0843061F4F501E35A50
:10532000FF4F10823296108231971082329610828F
:1053300031961082F50114AA15AA16AA17AA0E947E
:10534000F500C5010E948E060E942402605E7C4F1B
:105350008F4F9F4FD5015F966D937D938D939C9357
:10536000929717CEF50114AE85AD96AD019696AF26
:1053700085AFCCCFF50147858089238534850585A8
:105380001685873011F40C94AF21842F8D7F8130E6
:1053900031F08AEF840F823010F00C94AF2167E077
:1053A000C5010E945B119FC96EEF7FEF681B790BEF
:1053B0004EE050E090E080E0D5011B96ED91FC912D
:1053C0008E1B9F0B0FE002960E94CC07F50185858E
:1053D00096856EE070E0681B790BA6E0CA2ED12C92
:1053E0008385948540E09601281B390BC9010E94F2
:1053F0004003B9E04B2E512CD5011D968D919C9107
:105400001E97B201681B790B1B962D913C9140E0D1
:105410008FE090E0821B930B0E944003F501EF5B4D
:10542000FF4F8081882309F451C035E0632E712C31
:10543000F50185859685B301681B790B44E0E42E60
:10544000F12C838594850AE025E030E045E050E0CA
:10545000D701A81BB90BCD010E945A07F50185851C
:105460009685B701681B790B838594855AE0E52EF4
:1054700003E010E030E020E041E050E0D301A81B61
:10548000B90BCD010E94C007F5018585968563E0C3
:1054900070E0681B790B838594854AE09601281B90
:1054A000390BC9010E944003D5011D968D919C9135
:1054B0001E97B201681B790B1B968D919C9142E05F
:1054C000F601E81BF90BCF010E94400356E0652E60
:1054D000712CD5011D968D919C911E97B301681B6F
:1054E000790BEAE04E2E512C1B968D919C910BE08E
:1054F00025E030E044E050E0F201E81BF90BCF0179
:105500000E94CC07D5011D968D919C911E97B201EA
:10551000681B790B1B962D913C9142E08BE090E04B
:10552000821B930B0E944003FEE0CF2ED12CF5018D
:1055300085859685B601681B790B0384F485E02D7B
:10554000AFE0EA2E03E010E021E030E050E040E080
:1055500085E090E08E1B9F0B0E94C007D5011D9631
:105560008D919C911E97B601681B790B1B96ED914E
:10557000FC9121E030E050E040E087E090E08E1BBD
:105580009F0B0E94C007B0E1EB2EF12CF501858541
:105590009685B701681B790B0384F485E02D0FE035
:1055A00026E030E047E050E083E090E08E1B9F0B68
:1055B0000E94CC07D5011D968D919C911E97B70135
:1055C000681B790B1B968D919C9140E0F301E81BC1
:1055D000F90BCF010E944003D5011D968D919C913E
:1055E0001E9763E170E0681B790B14E0212E312CCB
:1055F0001B968D919C9102E022E030E042E050E069
:10560000F101E81BF90BCF010E945A0781E1C82E76
:10561000D12CD5011D968D919C911E97B601681BCA
:10562000790B1B968D919C9123E030E043E050E094
:10563000F301E81BF90BCF010E945A07D5011D9613
:105640008D919C911E9768E070E0681B790B9FE03C
:10565000692E712C1B968D919C912FE0E22E03E018
:1056600010E030E020E041E050E0F301E81BF90BEE
:10567000CF010E94C007D5011D968D919C911E9768
:10568000B201681B790B1B968D919C9130E020E054
:1056900041E050E0F301E81BF90BCF010E94C00785
:1056A000F501EE5BFF4F408150E0475F5F4FD50152
:1056B0001D968D919C911E97B101681B790B1B96CD
:1056C0008D919C910FE09A01F601E81BF90BCF0137
:1056D0000E94CC07D5011D968D919C911E9769E083
:1056E00070E0681B790B1B968D919C9141E0F6014F
:1056F000E81BF90BCF010E944003AF85B8898D915B
:105700009C91892B11F1F50185859685B101681B66
:10571000790B8385948525E030E043E050E0809567
:1057200090950E94CC07D5011D968D919C911E9756
:1057300068E070E0681B790B1B968D919C9142E0AC
:105740009195819591090E944003ED85FE858081A8
:105750009181892BE9F1D5011D966D917C911E9760
:105760007195619571091B96ED91FC910FE025E013
:1057700030E044E050E08AE090E08E1B9F0B0E94F6
:10578000CC07F50165857685609570956E5F7F4FD6
:105790004BE0E42EF12C8385948501E023E030E09A
:1057A00042E050E0D701A81BB90BCD010E945A0777
:1057B000F5018585968564E070E0681B790B83852B
:1057C000948542E09701281B390BC9010E944003D0
:1057D000D5011D968D919C911E9766E270E0681B25
:1057E000790B1B96ED91FC9101E028E030E049E057
:1057F00050E082E090E08E1B9F0B0E945A070AE265
:1058000010E0F50185859685B801681B790B238525
:1058100034854FE085E090E0821B930B0E944003AB
:10582000D5011D968D919C911E9769E270E0681BD1
:10583000790B36E0E32EF12C1B968D919C914FE075
:10584000F701E81BF90BCF010E944003D5011D961B
:105850008D919C911E97B801681B790B1B962D9119
:105860003C914FE087E090E0821B930B0E94400345
:10587000F50185859685B801681B790B838594852C
:1058800043E09701281B390BC9010E944003D50151
:105890001B96ED91FC91E63ABFEFFB070CF06AC056
:1058A000EE24E39405E010E021E030E050E040E039
:1058B00070E060E084EA9FEF8E1B9F0B0E94C007A0
:1058C000D5011B96ED91FC91A2E0EA2E21E030E09B
:1058D00050E040E070E060E083EA9FEF8E1B9F0B9A
:1058E0000E94C007D5011B96ED91FC91B3E0EB2E11
:1058F00021E030E050E040E070E060E082EA9FEFBD
:105900008E1B9F0B0E94C007D5011B96ED91FC9149
:1059100084E0E82E21E030E050E040E070E060E01C
:1059200081EA9FEF8E1B9F0B0E94C007D5011B963B
:10593000ED91FC9195E0E92E21E030E050E040E06F
:1059400070E060E080EA9FEF8E1B9F0B0E94C00713
:10595000D5011B96ED91FC9126E0E22E21E030E08E
:1059600050E040E070E060E08FE99FEF8E1B9F0BFE
:105970000E94C007D5011B96ED91FC91EB35F10516
:105980000CF46AC0EE24E39405E010E021E030E07E
:1059900050E040E070E060E080E690E08E1B9F0BFE
:1059A0000E94C007D5011B96ED91FC9132E0E32ED9
:1059B00021E030E050E040E070E060E081E690E01F
:1059C0008E1B9F0B0E94C007D5011B96ED91FC9189
:1059D00043E0E42E21E030E050E040E070E060E0A1
:1059E00082E690E08E1B9F0B0E94C007D5011B969C
:1059F000ED91FC9154E0E52E21E030E050E040E0F4
:105A000070E060E083E690E08E1B9F0B0E94C00771
:105A1000D5011B96ED91FC9165E0E62E21E030E08A
:105A200050E040E070E060E084E690E08E1B9F0B69
:105A30000E94C007D5011B96ED91FC9176E0E72E00
:105A400021E030E050E040E070E060E085E690E08A
:105A50008E1B9F0B0E94C007F50185859685863AAF
:105A6000FFEF9F070CF068C064EA7FEF681B790BBB
:105A7000EE24E39404E010E030E020E041E050E068
:105A800090E080E00E94C007D5011D968D919C9109
:105A900063EA7FEF681B790BA2E0EA2E30E020E09A
:105AA00041E050E090E080E00E94C007F50185856C
:105AB000968562EA7FEF681B790BB3E0EB2E30E04E
:105AC00020E041E050E090E080E00E94C007D50176
:105AD0001D968D919C9161EA7FEF681B790B84E0A4
